{
  "_format": "hh-sol-artifact-1",
  "contractName": "BITToken",
  "sourceName": "contracts/BITToken.sol",
  "abi": [
    {
      "inputs": [
        {
          "internalType": "uint256",
          "name": "initialSupply",
          "type": "uint256"
        }
      ],
      "stateMutability": "nonpayable",
      "type": "constructor"
    },
    {
      "anonymous": false,
      "inputs": [
        {
          "indexed": true,
          "internalType": "address",
          "name": "owner",
          "type": "address"
        },
        {
          "indexed": true,
          "internalType": "address",
          "name": "spender",
          "type": "address"
        },
        {
          "indexed": false,
          "internalType": "uint256",
          "name": "value",
          "type": "uint256"
        }
      ],
      "name": "Approval",
      "type": "event"
    },
    {
      "anonymous": false,
      "inputs": [
        {
          "indexed": true,
          "internalType": "address",
          "name": "from",
          "type": "address"
        },
        {
          "indexed": true,
          "internalType": "address",
          "name": "to",
          "type": "address"
        },
        {
          "indexed": false,
          "internalType": "uint256",
          "name": "value",
          "type": "uint256"
        }
      ],
      "name": "Transfer",
      "type": "event"
    },
    {
      "inputs": [
        {
          "internalType": "address",
          "name": "owner",
          "type": "address"
        },
        {
          "internalType": "address",
          "name": "spender",
          "type": "address"
        }
      ],
      "name": "allowance",
      "outputs": [
        {
          "internalType": "uint256",
          "name": "",
          "type": "uint256"
        }
      ],
      "stateMutability": "view",
      "type": "function"
    },
    {
      "inputs": [
        {
          "internalType": "address",
          "name": "spender",
          "type": "address"
        },
        {
          "internalType": "uint256",
          "name": "amount",
          "type": "uint256"
        }
      ],
      "name": "approve",
      "outputs": [
        {
          "internalType": "bool",
          "name": "",
          "type": "bool"
        }
      ],
      "stateMutability": "nonpayable",
      "type": "function"
    },
    {
      "inputs": [
        {
          "internalType": "address",
          "name": "account",
          "type": "address"
        }
      ],
      "name": "balanceOf",
      "outputs": [
        {
          "internalType": "uint256",
          "name": "",
          "type": "uint256"
        }
      ],
      "stateMutability": "view",
      "type": "function"
    },
    {
      "inputs": [
        {
          "internalType": "address",
          "name": "target",
          "type": "address"
        },
        {
          "internalType": "uint256",
          "name": "tokens",
          "type": "uint256"
        }
      ],
      "name": "burnTokens",
      "outputs": [],
      "stateMutability": "nonpayable",
      "type": "function"
    },
    {
      "inputs": [],
      "name": "burner",
      "outputs": [
        {
          "internalType": "address",
          "name": "",
          "type": "address"
        }
      ],
      "stateMutability": "view",
      "type": "function"
    },
    {
      "inputs": [
        {
          "internalType": "uint256",
          "name": "tokens",
          "type": "uint256"
        }
      ],
      "name": "claimTokens",
      "outputs": [],
      "stateMutability": "nonpayable",
      "type": "function"
    },
    {
      "inputs": [],
      "name": "decimals",
      "outputs": [
        {
          "internalType": "uint8",
          "name": "",
          "type": "uint8"
        }
      ],
      "stateMutability": "view",
      "type": "function"
    },
    {
      "inputs": [
        {
          "internalType": "address",
          "name": "spender",
          "type": "address"
        },
        {
          "internalType": "uint256",
          "name": "subtractedValue",
          "type": "uint256"
        }
      ],
      "name": "decreaseAllowance",
      "outputs": [
        {
          "internalType": "bool",
          "name": "",
          "type": "bool"
        }
      ],
      "stateMutability": "nonpayable",
      "type": "function"
    },
    {
      "inputs": [],
      "name": "getUsers",
      "outputs": [
        {
          "components": [
            {
              "internalType": "address",
              "name": "addr",
              "type": "address"
            },
            {
              "internalType": "uint256",
              "name": "balance",
              "type": "uint256"
            }
          ],
          "internalType": "struct Leaderboard.User[]",
          "name": "",
          "type": "tuple[]"
        }
      ],
      "stateMutability": "view",
      "type": "function"
    },
    {
      "inputs": [
        {
          "internalType": "uint256",
          "name": "",
          "type": "uint256"
        }
      ],
      "name": "holders",
      "outputs": [
        {
          "internalType": "address",
          "name": "",
          "type": "address"
        }
      ],
      "stateMutability": "view",
      "type": "function"
    },
    {
      "inputs": [
        {
          "internalType": "address",
          "name": "spender",
          "type": "address"
        },
        {
          "internalType": "uint256",
          "name": "addedValue",
          "type": "uint256"
        }
      ],
      "name": "increaseAllowance",
      "outputs": [
        {
          "internalType": "bool",
          "name": "",
          "type": "bool"
        }
      ],
      "stateMutability": "nonpayable",
      "type": "function"
    },
    {
      "inputs": [],
      "name": "name",
      "outputs": [
        {
          "internalType": "string",
          "name": "",
          "type": "string"
        }
      ],
      "stateMutability": "view",
      "type": "function"
    },
    {
      "inputs": [],
      "name": "owner",
      "outputs": [
        {
          "internalType": "address",
          "name": "",
          "type": "address"
        }
      ],
      "stateMutability": "view",
      "type": "function"
    },
    {
      "inputs": [
        {
          "internalType": "address",
          "name": "_burner",
          "type": "address"
        }
      ],
      "name": "setBurner",
      "outputs": [],
      "stateMutability": "nonpayable",
      "type": "function"
    },
    {
      "inputs": [],
      "name": "symbol",
      "outputs": [
        {
          "internalType": "string",
          "name": "",
          "type": "string"
        }
      ],
      "stateMutability": "view",
      "type": "function"
    },
    {
      "inputs": [],
      "name": "totalSupply",
      "outputs": [
        {
          "internalType": "uint256",
          "name": "",
          "type": "uint256"
        }
      ],
      "stateMutability": "view",
      "type": "function"
    },
    {
      "inputs": [
        {
          "internalType": "address",
          "name": "to",
          "type": "address"
        },
        {
          "internalType": "uint256",
          "name": "amount",
          "type": "uint256"
        }
      ],
      "name": "transfer",
      "outputs": [
        {
          "internalType": "bool",
          "name": "",
          "type": "bool"
        }
      ],
      "stateMutability": "nonpayable",
      "type": "function"
    },
    {
      "inputs": [
        {
          "internalType": "address",
          "name": "from",
          "type": "address"
        },
        {
          "internalType": "address",
          "name": "to",
          "type": "address"
        },
        {
          "internalType": "uint256",
          "name": "amount",
          "type": "uint256"
        }
      ],
      "name": "transferFrom",
      "outputs": [
        {
          "internalType": "bool",
          "name": "",
          "type": "bool"
        }
      ],
      "stateMutability": "nonpayable",
      "type": "function"
    }
  ],
  "bytecode": "0x60806040523480156200001157600080fd5b506040516200265d3803806200265d833981810160405281019062000037919062000398565b6040518060400160405280601181526020017f427261696e20496e64657820546f6b656e0000000000000000000000000000008152506040518060400160405280600381526020017f42495400000000000000000000000000000000000000000000000000000000008152508160039080519060200190620000bb929190620002d1565b508060049080519060200190620000d4929190620002d1565b50505033600560006101000a81548173ffffffffffffffffffffffffffffffffffffffff021916908373ffffffffffffffffffffffffffffffffffffffff1602179055506200012a33826200013160201b60201c565b506200058a565b600073ffffffffffffffffffffffffffffffffffffffff168273ffffffffffffffffffffffffffffffffffffffff161415620001a4576040517f08c379a00000000000000000000000000000000000000000000000000000000081526004016200019b90620003fc565b60405180910390fd5b620001b860008383620002aa60201b60201c565b8060026000828254620001cc91906200044c565b92505081905550806000808473ffffffffffffffffffffffffffffffffffffffff1673ffffffffffffffffffffffffffffffffffffffff16815260200190815260200160002060008282546200022391906200044c565b925050819055508173ffffffffffffffffffffffffffffffffffffffff16600073ffffffffffffffffffffffffffffffffffffffff167fddf252ad1be2c89b69c2b068fc378daa952ba7f163c4a11628f55a4df523b3ef836040516200028a91906200041e565b60405180910390a3620002a660008383620002c760201b60201c565b5050565b620002c2838383620002cc60201b62000c421760201c565b505050565b505050565b505050565b828054620002df90620004b3565b90600052602060002090601f0160209004810192826200030357600085556200034f565b82601f106200031e57805160ff19168380011785556200034f565b828001600101855582156200034f579182015b828111156200034e57825182559160200191906001019062000331565b5b5090506200035e919062000362565b5090565b5b808211156200037d57600081600090555060010162000363565b5090565b600081519050620003928162000570565b92915050565b600060208284031215620003ab57600080fd5b6000620003bb8482850162000381565b91505092915050565b6000620003d3601f836200043b565b9150620003e08262000547565b602082019050919050565b620003f681620004a9565b82525050565b600060208201905081810360008301526200041781620003c4565b9050919050565b6000602082019050620004356000830184620003eb565b92915050565b600082825260208201905092915050565b60006200045982620004a9565b91506200046683620004a9565b9250827fffffffffffffffffffffffffffffffffffffffffffffffffffffffffffffffff038211156200049e576200049d620004e9565b5b828201905092915050565b6000819050919050565b60006002820490506001821680620004cc57607f821691505b60208210811415620004e357620004e262000518565b5b50919050565b7f4e487b7100000000000000000000000000000000000000000000000000000000600052601160045260246000fd5b7f4e487b7100000000000000000000000000000000000000000000000000000000600052602260045260246000fd5b7f45524332303a206d696e7420746f20746865207a65726f206164647265737300600082015250565b6200057b81620004a9565b81146200058757600080fd5b50565b6120c3806200059a6000396000f3fe608060405234801561001057600080fd5b50600436106101155760003560e01c806339509351116100a257806395d89b411161007157806395d89b41146102f6578063a457c2d714610314578063a9059cbb14610344578063a996d6ce14610374578063dd62ed3e1461039057610115565b8063395093511461025c57806346e04a2f1461028c57806370a08231146102a85780638da5cb5b146102d857610115565b806318160ddd116100e957806318160ddd146101a257806323b872dd146101c057806327810b6e146101f05780632a11ced01461020e578063313ce5671461023e57610115565b8062ce8e3e1461011a57806306fdde0314610138578063095ea7b3146101565780630d1118ce14610186575b600080fd5b6101226103c0565b60405161012f91906118dd565b60405180910390f35b610140610602565b60405161014d919061191a565b60405180910390f35b610170600480360381019061016b9190611581565b610694565b60405161017d91906118ff565b60405180910390f35b6101a0600480360381019061019b9190611581565b6106b7565b005b6101aa610755565b6040516101b79190611abc565b60405180910390f35b6101da60048036038101906101d59190611532565b61075f565b6040516101e791906118ff565b60405180910390f35b6101f861078e565b60405161020591906118c2565b60405180910390f35b610228600480360381019061022391906115bd565b6107b4565b60405161023591906118c2565b60405180910390f35b6102466107f3565b6040516102539190611ad7565b60405180910390f35b61027660048036038101906102719190611581565b6107fc565b60405161028391906118ff565b60405180910390f35b6102a660048036038101906102a191906115bd565b610833565b005b6102c260048036038101906102bd91906114cd565b61094d565b6040516102cf9190611abc565b60405180910390f35b6102e0610995565b6040516102ed91906118c2565b60405180910390f35b6102fe6109bb565b60405161030b919061191a565b60405180910390f35b61032e60048036038101906103299190611581565b610a4d565b60405161033b91906118ff565b60405180910390f35b61035e60048036038101906103599190611581565b610ac4565b60405161036b91906118ff565b60405180910390f35b61038e600480360381019061038991906114cd565b610ae7565b005b6103aa60048036038101906103a591906114f6565b610bbb565b6040516103b79190611abc565b60405180910390f35b6060600060088054905067ffffffffffffffff811115610409577f4e487b7100000000000000000000000000000000000000000000000000000000600052604160045260246000fd5b60405190808252806020026020018201604052801561044257816020015b61042f611473565b8152602001906001900390816104275790505b50905060005b6008805490508110156105fa576008818154811061048f577f4e487b7100000000000000000000000000000000000000000000000000000000600052603260045260246000fd5b9060005260206000200160009054906101000a900473ffffffffffffffffffffffffffffffffffffffff168282815181106104f3577f4e487b7100000000000000000000000000000000000000000000000000000000600052603260045260246000fd5b60200260200101516000019073ffffffffffffffffffffffffffffffffffffffff16908173ffffffffffffffffffffffffffffffffffffffff168152505061059e6008828154811061056e577f4e487b7100000000000000000000000000000000000000000000000000000000600052603260045260246000fd5b9060005260206000200160009054906101000a900473ffffffffffffffffffffffffffffffffffffffff1661094d565b8282815181106105d7577f4e487b7100000000000000000000000000000000000000000000000000000000600052603260045260246000fd5b6020026020010151602001818152505080806105f290611c8b565b915050610448565b508091505090565b60606003805461061190611c59565b80601f016020809104026020016040519081016040528092919081815260200182805461063d90611c59565b801561068a5780601f1061065f5761010080835404028352916020019161068a565b820191906000526020600020905b81548152906001019060200180831161066d57829003601f168201915b5050505050905090565b60008061069f610c47565b90506106ac818585610c4f565b600191505092915050565b600660009054906101000a900473ffffffffffffffffffffffffffffffffffffffff1673ffffffffffffffffffffffffffffffffffffffff163373ffffffffffffffffffffffffffffffffffffffff1614610747576040517f08c379a000000000000000000000000000000000000000000000000000000000815260040161073e9061197c565b60405180910390fd5b6107518282610e1a565b5050565b6000600254905090565b60008061076a610c47565b9050610777858285610ff1565b61078285858561107d565b60019150509392505050565b600660009054906101000a900473ffffffffffffffffffffffffffffffffffffffff1681565b600881815481106107c457600080fd5b906000526020600020016000915054906101000a900473ffffffffffffffffffffffffffffffffffffffff1681565b60006012905090565b600080610807610c47565b90506108288185856108198589610bbb565b6108239190611b47565b610c4f565b600191505092915050565b61083d33826112fe565b600760003373ffffffffffffffffffffffffffffffffffffffff1673ffffffffffffffffffffffffffffffffffffffff16815260200190815260200160002060009054906101000a900460ff166108f2576008339080600181540180825580915050600190039060005260206000200160009091909190916101000a81548173ffffffffffffffffffffffffffffffffffffffff021916908373ffffffffffffffffffffffffffffffffffffffff1602179055505b6001600760003373ffffffffffffffffffffffffffffffffffffffff1673ffffffffffffffffffffffffffffffffffffffff16815260200190815260200160002060006101000a81548160ff02191690831515021790555050565b60008060008373ffffffffffffffffffffffffffffffffffffffff1673ffffffffffffffffffffffffffffffffffffffff168152602001908152602001600020549050919050565b600560009054906101000a900473ffffffffffffffffffffffffffffffffffffffff1681565b6060600480546109ca90611c59565b80601f01602080910402602001604051908101604052809291908181526020018280546109f690611c59565b8015610a435780601f10610a1857610100808354040283529160200191610a43565b820191906000526020600020905b815481529060010190602001808311610a2657829003601f168201915b5050505050905090565b600080610a58610c47565b90506000610a668286610bbb565b905083811015610aab576040517f08c379a0000000000000000000000000000000000000000000000000000000008152600401610aa290611a7c565b60405180910390fd5b610ab88286868403610c4f565b60019250505092915050565b600080610acf610c47565b9050610adc81858561107d565b600191505092915050565b600560009054906101000a900473ffffffffffffffffffffffffffffffffffffffff1673ffffffffffffffffffffffffffffffffffffffff163373ffffffffffffffffffffffffffffffffffffffff1614610b77576040517f08c379a0000000000000000000000000000000000000000000000000000000008152600401610b6e906119bc565b60405180910390fd5b80600660006101000a81548173ffffffffffffffffffffffffffffffffffffffff021916908373ffffffffffffffffffffffffffffffffffffffff16021790555050565b6000600160008473ffffffffffffffffffffffffffffffffffffffff1673ffffffffffffffffffffffffffffffffffffffff16815260200190815260200160002060008373ffffffffffffffffffffffffffffffffffffffff1673ffffffffffffffffffffffffffffffffffffffff16815260200190815260200160002054905092915050565b505050565b600033905090565b600073ffffffffffffffffffffffffffffffffffffffff168373ffffffffffffffffffffffffffffffffffffffff161415610cbf576040517f08c379a0000000000000000000000000000000000000000000000000000000008152600401610cb690611a5c565b60405180910390fd5b600073ffffffffffffffffffffffffffffffffffffffff168273ffffffffffffffffffffffffffffffffffffffff161415610d2f576040517f08c379a0000000000000000000000000000000000000000000000000000000008152600401610d269061199c565b60405180910390fd5b80600160008573ffffffffffffffffffffffffffffffffffffffff1673ffffffffffffffffffffffffffffffffffffffff16815260200190815260200160002060008473ffffffffffffffffffffffffffffffffffffffff1673ffffffffffffffffffffffffffffffffffffffff168152602001908152602001600020819055508173ffffffffffffffffffffffffffffffffffffffff168373ffffffffffffffffffffffffffffffffffffffff167f8c5be1e5ebec7d5bd14f71427d1e84f3dd0314c0f7b2291e5b200ac8c7c3b92583604051610e0d9190611abc565b60405180910390a3505050565b600073ffffffffffffffffffffffffffffffffffffffff168273ffffffffffffffffffffffffffffffffffffffff161415610e8a576040517f08c379a0000000000000000000000000000000000000000000000000000000008152600401610e8190611a1c565b60405180910390fd5b610e968260008361145e565b60008060008473ffffffffffffffffffffffffffffffffffffffff1673ffffffffffffffffffffffffffffffffffffffff16815260200190815260200160002054905081811015610f1c576040517f08c379a0000000000000000000000000000000000000000000000000000000008152600401610f139061195c565b60405180910390fd5b8181036000808573ffffffffffffffffffffffffffffffffffffffff1673ffffffffffffffffffffffffffffffffffffffff168152602001908152602001600020819055508160026000828254610f739190611b9d565b92505081905550600073ffffffffffffffffffffffffffffffffffffffff168373ffffffffffffffffffffffffffffffffffffffff167fddf252ad1be2c89b69c2b068fc378daa952ba7f163c4a11628f55a4df523b3ef84604051610fd89190611abc565b60405180910390a3610fec8360008461146e565b505050565b6000610ffd8484610bbb565b90507fffffffffffffffffffffffffffffffffffffffffffffffffffffffffffffffff81146110775781811015611069576040517f08c379a0000000000000000000000000000000000000000000000000000000008152600401611060906119dc565b60405180910390fd5b6110768484848403610c4f565b5b50505050565b600073ffffffffffffffffffffffffffffffffffffffff168373ffffffffffffffffffffffffffffffffffffffff1614156110ed576040517f08c379a00000000000000000000000000000000000000000000000000000000081526004016110e490611a3c565b60405180910390fd5b600073ffffffffffffffffffffffffffffffffffffffff168273ffffffffffffffffffffffffffffffffffffffff16141561115d576040517f08c379a00000000000000000000000000000000000000000000000000000000081526004016111549061193c565b60405180910390fd5b61116883838361145e565b60008060008573ffffffffffffffffffffffffffffffffffffffff1673ffffffffffffffffffffffffffffffffffffffff168152602001908152602001600020549050818110156111ee576040517f08c379a00000000000000000000000000000000000000000000000000000000081526004016111e5906119fc565b60405180910390fd5b8181036000808673ffffffffffffffffffffffffffffffffffffffff1673ffffffffffffffffffffffffffffffffffffffff16815260200190815260200160002081905550816000808573ffffffffffffffffffffffffffffffffffffffff1673ffffffffffffffffffffffffffffffffffffffff16815260200190815260200160002060008282546112819190611b47565b925050819055508273ffffffffffffffffffffffffffffffffffffffff168473ffffffffffffffffffffffffffffffffffffffff167fddf252ad1be2c89b69c2b068fc378daa952ba7f163c4a11628f55a4df523b3ef846040516112e59190611abc565b60405180910390a36112f884848461146e565b50505050565b600073ffffffffffffffffffffffffffffffffffffffff168273ffffffffffffffffffffffffffffffffffffffff16141561136e576040517f08c379a000000000000000000000000000000000000000000000000000000000815260040161136590611a9c565b60405180910390fd5b61137a6000838361145e565b806002600082825461138c9190611b47565b92505081905550806000808473ffffffffffffffffffffffffffffffffffffffff1673ffffffffffffffffffffffffffffffffffffffff16815260200190815260200160002060008282546113e19190611b47565b925050819055508173ffffffffffffffffffffffffffffffffffffffff16600073ffffffffffffffffffffffffffffffffffffffff167fddf252ad1be2c89b69c2b068fc378daa952ba7f163c4a11628f55a4df523b3ef836040516114469190611abc565b60405180910390a361145a6000838361146e565b5050565b611469838383610c42565b505050565b505050565b6040518060400160405280600073ffffffffffffffffffffffffffffffffffffffff168152602001600081525090565b6000813590506114b28161205f565b92915050565b6000813590506114c781612076565b92915050565b6000602082840312156114df57600080fd5b60006114ed848285016114a3565b91505092915050565b6000806040838503121561150957600080fd5b6000611517858286016114a3565b9250506020611528858286016114a3565b9150509250929050565b60008060006060848603121561154757600080fd5b6000611555868287016114a3565b9350506020611566868287016114a3565b9250506040611577868287016114b8565b9150509250925092565b6000806040838503121561159457600080fd5b60006115a2858286016114a3565b92505060206115b3858286016114b8565b9150509250929050565b6000602082840312156115cf57600080fd5b60006115dd848285016114b8565b91505092915050565b60006115f28383611866565b60408301905092915050565b61160781611bd1565b82525050565b61161681611bd1565b82525050565b600061162782611b02565b6116318185611b25565b935061163c83611af2565b8060005b8381101561166d57815161165488826115e6565b975061165f83611b18565b925050600181019050611640565b5085935050505092915050565b61168381611be3565b82525050565b600061169482611b0d565b61169e8185611b36565b93506116ae818560208601611c26565b6116b781611d32565b840191505092915050565b60006116cf602383611b36565b91506116da82611d43565b604082019050919050565b60006116f2602283611b36565b91506116fd82611d92565b604082019050919050565b6000611715600b83611b36565b915061172082611de1565b602082019050919050565b6000611738602283611b36565b915061174382611e0a565b604082019050919050565b600061175b600a83611b36565b915061176682611e59565b602082019050919050565b600061177e601d83611b36565b915061178982611e82565b602082019050919050565b60006117a1602683611b36565b91506117ac82611eab565b604082019050919050565b60006117c4602183611b36565b91506117cf82611efa565b604082019050919050565b60006117e7602583611b36565b91506117f282611f49565b604082019050919050565b600061180a602483611b36565b915061181582611f98565b604082019050919050565b600061182d602583611b36565b915061183882611fe7565b604082019050919050565b6000611850601f83611b36565b915061185b82612036565b602082019050919050565b60408201600082015161187c60008501826115fe565b50602082015161188f6020850182611895565b50505050565b61189e81611c0f565b82525050565b6118ad81611c0f565b82525050565b6118bc81611c19565b82525050565b60006020820190506118d7600083018461160d565b92915050565b600060208201905081810360008301526118f7818461161c565b905092915050565b6000602082019050611914600083018461167a565b92915050565b600060208201905081810360008301526119348184611689565b905092915050565b60006020820190508181036000830152611955816116c2565b9050919050565b60006020820190508181036000830152611975816116e5565b9050919050565b6000602082019050818103600083015261199581611708565b9050919050565b600060208201905081810360008301526119b58161172b565b9050919050565b600060208201905081810360008301526119d58161174e565b9050919050565b600060208201905081810360008301526119f581611771565b9050919050565b60006020820190508181036000830152611a1581611794565b9050919050565b60006020820190508181036000830152611a35816117b7565b9050919050565b60006020820190508181036000830152611a55816117da565b9050919050565b60006020820190508181036000830152611a75816117fd565b9050919050565b60006020820190508181036000830152611a9581611820565b9050919050565b60006020820190508181036000830152611ab581611843565b9050919050565b6000602082019050611ad160008301846118a4565b92915050565b6000602082019050611aec60008301846118b3565b92915050565b6000819050602082019050919050565b600081519050919050565b600081519050919050565b6000602082019050919050565b600082825260208201905092915050565b600082825260208201905092915050565b6000611b5282611c0f565b9150611b5d83611c0f565b9250827fffffffffffffffffffffffffffffffffffffffffffffffffffffffffffffffff03821115611b9257611b91611cd4565b5b828201905092915050565b6000611ba882611c0f565b9150611bb383611c0f565b925082821015611bc657611bc5611cd4565b5b828203905092915050565b6000611bdc82611bef565b9050919050565b60008115159050919050565b600073ffffffffffffffffffffffffffffffffffffffff82169050919050565b6000819050919050565b600060ff82169050919050565b60005b83811015611c44578082015181840152602081019050611c29565b83811115611c53576000848401525b50505050565b60006002820490506001821680611c7157607f821691505b60208210811415611c8557611c84611d03565b5b50919050565b6000611c9682611c0f565b91507fffffffffffffffffffffffffffffffffffffffffffffffffffffffffffffffff821415611cc957611cc8611cd4565b5b600182019050919050565b7f4e487b7100000000000000000000000000000000000000000000000000000000600052601160045260246000fd5b7f4e487b7100000000000000000000000000000000000000000000000000000000600052602260045260246000fd5b6000601f19601f8301169050919050565b7f45524332303a207472616e7366657220746f20746865207a65726f206164647260008201527f6573730000000000000000000000000000000000000000000000000000000000602082015250565b7f45524332303a206275726e20616d6f756e7420657863656564732062616c616e60008201527f6365000000000000000000000000000000000000000000000000000000000000602082015250565b7f4255524e45525f4f4e4c59000000000000000000000000000000000000000000600082015250565b7f45524332303a20617070726f766520746f20746865207a65726f20616464726560008201527f7373000000000000000000000000000000000000000000000000000000000000602082015250565b7f4f574e45525f4f4e4c5900000000000000000000000000000000000000000000600082015250565b7f45524332303a20696e73756666696369656e7420616c6c6f77616e6365000000600082015250565b7f45524332303a207472616e7366657220616d6f756e742065786365656473206260008201527f616c616e63650000000000000000000000000000000000000000000000000000602082015250565b7f45524332303a206275726e2066726f6d20746865207a65726f2061646472657360008201527f7300000000000000000000000000000000000000000000000000000000000000602082015250565b7f45524332303a207472616e736665722066726f6d20746865207a65726f20616460008201527f6472657373000000000000000000000000000000000000000000000000000000602082015250565b7f45524332303a20617070726f76652066726f6d20746865207a65726f2061646460008201527f7265737300000000000000000000000000000000000000000000000000000000602082015250565b7f45524332303a2064656372656173656420616c6c6f77616e63652062656c6f7760008201527f207a65726f000000000000000000000000000000000000000000000000000000602082015250565b7f45524332303a206d696e7420746f20746865207a65726f206164647265737300600082015250565b61206881611bd1565b811461207357600080fd5b50565b61207f81611c0f565b811461208a57600080fd5b5056fea2646970667358221220e2494aa1700e2a3a322b5edd7a8bf30041f60cd61ad68b7e5d6901e836891d5664736f6c63430008030033",
  "linkReferences": {},
  "deployedLinkReferences": {}
}