{
  "_format": "hh-sol-artifact-1",
  "contractName": "BrainNFT",
  "sourceName": "contracts/BrainNFT.sol",
  "abi": [
    {
      "inputs": [
        {
          "internalType": "address",
          "name": "_bitToken",
          "type": "address"
        },
        {
          "internalType": "string[]",
          "name": "_lowURI",
          "type": "string[]"
        },
        {
          "internalType": "string[]",
          "name": "_mediumURI",
          "type": "string[]"
        },
        {
          "internalType": "string[]",
          "name": "_highURI",
          "type": "string[]"
        }
      ],
      "stateMutability": "nonpayable",
      "type": "constructor"
    },
    {
      "anonymous": false,
      "inputs": [
        {
          "indexed": true,
          "internalType": "address",
          "name": "owner",
          "type": "address"
        },
        {
          "indexed": true,
          "internalType": "address",
          "name": "approved",
          "type": "address"
        },
        {
          "indexed": true,
          "internalType": "uint256",
          "name": "tokenId",
          "type": "uint256"
        }
      ],
      "name": "Approval",
      "type": "event"
    },
    {
      "anonymous": false,
      "inputs": [
        {
          "indexed": true,
          "internalType": "address",
          "name": "owner",
          "type": "address"
        },
        {
          "indexed": true,
          "internalType": "address",
          "name": "operator",
          "type": "address"
        },
        {
          "indexed": false,
          "internalType": "bool",
          "name": "approved",
          "type": "bool"
        }
      ],
      "name": "ApprovalForAll",
      "type": "event"
    },
    {
      "anonymous": false,
      "inputs": [
        {
          "indexed": true,
          "internalType": "address",
          "name": "from",
          "type": "address"
        },
        {
          "indexed": true,
          "internalType": "address",
          "name": "to",
          "type": "address"
        },
        {
          "indexed": true,
          "internalType": "uint256",
          "name": "tokenId",
          "type": "uint256"
        }
      ],
      "name": "Transfer",
      "type": "event"
    },
    {
      "inputs": [],
      "name": "HIGH_THRESHOLD",
      "outputs": [
        {
          "internalType": "uint256",
          "name": "",
          "type": "uint256"
        }
      ],
      "stateMutability": "view",
      "type": "function"
    },
    {
      "inputs": [],
      "name": "MEDIUM_THRESHOLD",
      "outputs": [
        {
          "internalType": "uint256",
          "name": "",
          "type": "uint256"
        }
      ],
      "stateMutability": "view",
      "type": "function"
    },
    {
      "inputs": [
        {
          "internalType": "address",
          "name": "to",
          "type": "address"
        },
        {
          "internalType": "uint256",
          "name": "tokenId",
          "type": "uint256"
        }
      ],
      "name": "approve",
      "outputs": [],
      "stateMutability": "nonpayable",
      "type": "function"
    },
    {
      "inputs": [
        {
          "internalType": "address",
          "name": "owner",
          "type": "address"
        }
      ],
      "name": "balanceOf",
      "outputs": [
        {
          "internalType": "uint256",
          "name": "",
          "type": "uint256"
        }
      ],
      "stateMutability": "view",
      "type": "function"
    },
    {
      "inputs": [],
      "name": "bitToken",
      "outputs": [
        {
          "internalType": "address",
          "name": "",
          "type": "address"
        }
      ],
      "stateMutability": "view",
      "type": "function"
    },
    {
      "inputs": [
        {
          "internalType": "uint256",
          "name": "tokens",
          "type": "uint256"
        }
      ],
      "name": "claimNFT",
      "outputs": [],
      "stateMutability": "nonpayable",
      "type": "function"
    },
    {
      "inputs": [
        {
          "internalType": "uint256",
          "name": "tokenId",
          "type": "uint256"
        }
      ],
      "name": "getApproved",
      "outputs": [
        {
          "internalType": "address",
          "name": "",
          "type": "address"
        }
      ],
      "stateMutability": "view",
      "type": "function"
    },
    {
      "inputs": [
        {
          "internalType": "uint256",
          "name": "",
          "type": "uint256"
        }
      ],
      "name": "highURI",
      "outputs": [
        {
          "internalType": "string",
          "name": "",
          "type": "string"
        }
      ],
      "stateMutability": "view",
      "type": "function"
    },
    {
      "inputs": [
        {
          "internalType": "address",
          "name": "owner",
          "type": "address"
        },
        {
          "internalType": "address",
          "name": "operator",
          "type": "address"
        }
      ],
      "name": "isApprovedForAll",
      "outputs": [
        {
          "internalType": "bool",
          "name": "",
          "type": "bool"
        }
      ],
      "stateMutability": "view",
      "type": "function"
    },
    {
      "inputs": [
        {
          "internalType": "uint256",
          "name": "",
          "type": "uint256"
        }
      ],
      "name": "lowURI",
      "outputs": [
        {
          "internalType": "string",
          "name": "",
          "type": "string"
        }
      ],
      "stateMutability": "view",
      "type": "function"
    },
    {
      "inputs": [
        {
          "internalType": "uint256",
          "name": "",
          "type": "uint256"
        }
      ],
      "name": "mediumURI",
      "outputs": [
        {
          "internalType": "string",
          "name": "",
          "type": "string"
        }
      ],
      "stateMutability": "view",
      "type": "function"
    },
    {
      "inputs": [],
      "name": "name",
      "outputs": [
        {
          "internalType": "string",
          "name": "",
          "type": "string"
        }
      ],
      "stateMutability": "view",
      "type": "function"
    },
    {
      "inputs": [],
      "name": "owner",
      "outputs": [
        {
          "internalType": "address",
          "name": "",
          "type": "address"
        }
      ],
      "stateMutability": "view",
      "type": "function"
    },
    {
      "inputs": [
        {
          "internalType": "uint256",
          "name": "tokenId",
          "type": "uint256"
        }
      ],
      "name": "ownerOf",
      "outputs": [
        {
          "internalType": "address",
          "name": "",
          "type": "address"
        }
      ],
      "stateMutability": "view",
      "type": "function"
    },
    {
      "inputs": [
        {
          "internalType": "address",
          "name": "from",
          "type": "address"
        },
        {
          "internalType": "address",
          "name": "to",
          "type": "address"
        },
        {
          "internalType": "uint256",
          "name": "tokenId",
          "type": "uint256"
        }
      ],
      "name": "safeTransferFrom",
      "outputs": [],
      "stateMutability": "nonpayable",
      "type": "function"
    },
    {
      "inputs": [
        {
          "internalType": "address",
          "name": "from",
          "type": "address"
        },
        {
          "internalType": "address",
          "name": "to",
          "type": "address"
        },
        {
          "internalType": "uint256",
          "name": "tokenId",
          "type": "uint256"
        },
        {
          "internalType": "bytes",
          "name": "_data",
          "type": "bytes"
        }
      ],
      "name": "safeTransferFrom",
      "outputs": [],
      "stateMutability": "nonpayable",
      "type": "function"
    },
    {
      "inputs": [
        {
          "internalType": "address",
          "name": "operator",
          "type": "address"
        },
        {
          "internalType": "bool",
          "name": "approved",
          "type": "bool"
        }
      ],
      "name": "setApprovalForAll",
      "outputs": [],
      "stateMutability": "nonpayable",
      "type": "function"
    },
    {
      "inputs": [
        {
          "internalType": "bytes4",
          "name": "interfaceId",
          "type": "bytes4"
        }
      ],
      "name": "supportsInterface",
      "outputs": [
        {
          "internalType": "bool",
          "name": "",
          "type": "bool"
        }
      ],
      "stateMutability": "view",
      "type": "function"
    },
    {
      "inputs": [],
      "name": "symbol",
      "outputs": [
        {
          "internalType": "string",
          "name": "",
          "type": "string"
        }
      ],
      "stateMutability": "view",
      "type": "function"
    },
    {
      "inputs": [
        {
          "internalType": "uint256",
          "name": "tokenId",
          "type": "uint256"
        }
      ],
      "name": "tokenURI",
      "outputs": [
        {
          "internalType": "string",
          "name": "",
          "type": "string"
        }
      ],
      "stateMutability": "view",
      "type": "function"
    },
    {
      "inputs": [
        {
          "internalType": "address",
          "name": "from",
          "type": "address"
        },
        {
          "internalType": "address",
          "name": "to",
          "type": "address"
        },
        {
          "internalType": "uint256",
          "name": "tokenId",
          "type": "uint256"
        }
      ],
      "name": "transferFrom",
      "outputs": [],
      "stateMutability": "nonpayable",
      "type": "function"
    }
  ],
  "bytecode": "0x60806040523480156200001157600080fd5b5060405162003e0138038062003e01833981810160405281019062000037919062000517565b6040518060400160405280600981526020017f427261696e204e465400000000000000000000000000000000000000000000008152506040518060400160405280600381526020017f424e5400000000000000000000000000000000000000000000000000000000008152508160009080519060200190620000bb9291906200034c565b508060019080519060200190620000d49291906200034c565b50505033600760006101000a81548173ffffffffffffffffffffffffffffffffffffffff021916908373ffffffffffffffffffffffffffffffffffffffff16021790555083600860006101000a81548173ffffffffffffffffffffffffffffffffffffffff021916908373ffffffffffffffffffffffffffffffffffffffff16021790555060005b8351811015620001fb576009848281518110620001a2577f4e487b7100000000000000000000000000000000000000000000000000000000600052603260045260246000fd5b6020026020010151908060018154018082558091505060019003906000526020600020016000909190919091509080519060200190620001e49291906200034c565b508080620001f2906200073c565b9150506200015c565b5060005b82518110156200029e57600a83828151811062000245577f4e487b7100000000000000000000000000000000000000000000000000000000600052603260045260246000fd5b6020026020010151908060018154018082558091505060019003906000526020600020016000909190919091509080519060200190620002879291906200034c565b50808062000295906200073c565b915050620001ff565b5060005b81518110156200034157600b828281518110620002e8577f4e487b7100000000000000000000000000000000000000000000000000000000600052603260045260246000fd5b60200260200101519080600181540180825580915050600190039060005260206000200160009091909190915090805190602001906200032a9291906200034c565b50808062000338906200073c565b915050620002a2565b505050505062000842565b8280546200035a90620006d0565b90600052602060002090601f0160209004810192826200037e5760008555620003ca565b82601f106200039957805160ff1916838001178555620003ca565b82800160010185558215620003ca579182015b82811115620003c9578251825591602001919060010190620003ac565b5b509050620003d99190620003dd565b5090565b5b80821115620003f8576000816000905550600101620003de565b5090565b6000620004136200040d84620005f7565b620005ce565b9050808382526020820190508260005b858110156200045757815185016200043c8882620004ea565b84526020840193506020830192505060018101905062000423565b5050509392505050565b600062000478620004728462000626565b620005ce565b9050828152602081018484840111156200049157600080fd5b6200049e8482856200069a565b509392505050565b600081519050620004b78162000828565b92915050565b600082601f830112620004cf57600080fd5b8151620004e1848260208601620003fc565b91505092915050565b600082601f830112620004fc57600080fd5b81516200050e84826020860162000461565b91505092915050565b600080600080608085870312156200052e57600080fd5b60006200053e87828801620004a6565b945050602085015167ffffffffffffffff8111156200055c57600080fd5b6200056a87828801620004bd565b935050604085015167ffffffffffffffff8111156200058857600080fd5b6200059687828801620004bd565b925050606085015167ffffffffffffffff811115620005b457600080fd5b620005c287828801620004bd565b91505092959194509250565b6000620005da620005ed565b9050620005e8828262000706565b919050565b6000604051905090565b600067ffffffffffffffff821115620006155762000614620007e8565b5b602082029050602081019050919050565b600067ffffffffffffffff821115620006445762000643620007e8565b5b6200064f8262000817565b9050602081019050919050565b6000620006698262000670565b9050919050565b600073ffffffffffffffffffffffffffffffffffffffff82169050919050565b6000819050919050565b60005b83811015620006ba5780820151818401526020810190506200069d565b83811115620006ca576000848401525b50505050565b60006002820490506001821680620006e957607f821691505b602082108114156200070057620006ff620007b9565b5b50919050565b620007118262000817565b810181811067ffffffffffffffff82111715620007335762000732620007e8565b5b80604052505050565b6000620007498262000690565b91507fffffffffffffffffffffffffffffffffffffffffffffffffffffffffffffffff8214156200077f576200077e6200078a565b5b600182019050919050565b7f4e487b7100000000000000000000000000000000000000000000000000000000600052601160045260246000fd5b7f4e487b7100000000000000000000000000000000000000000000000000000000600052602260045260246000fd5b7f4e487b7100000000000000000000000000000000000000000000000000000000600052604160045260246000fd5b6000601f19601f8301169050919050565b62000833816200065c565b81146200083f57600080fd5b50565b6135af80620008526000396000f3fe608060405234801561001057600080fd5b50600436106101375760003560e01c806370a08231116100b8578063b8cd6c711161007c578063b8cd6c711461034e578063c87b56dd1461037e578063cb1f3214146103ae578063d84e9f92146103de578063e985e9c5146103fc578063fe5c873a1461042c57610137565b806370a08231146102aa5780638da5cb5b146102da57806395d89b41146102f8578063a22cb46514610316578063b88d4fde1461033257610137565b80632b8f8daa116100ff5780632b8f8daa146101f25780632d438528146102105780632e4c76b11461024057806342842e0e1461025e5780636352211e1461027a57610137565b806301ffc9a71461013c57806306fdde031461016c578063081812fc1461018a578063095ea7b3146101ba57806323b872dd146101d6575b600080fd5b61015660048036038101906101519190612516565b610448565b60405161016391906129f7565b60405180910390f35b61017461052a565b6040516101819190612a12565b60405180910390f35b6101a4600480360381019061019f9190612568565b6105bc565b6040516101b19190612967565b60405180910390f35b6101d460048036038101906101cf91906124da565b610641565b005b6101f060048036038101906101eb91906123d4565b610759565b005b6101fa6107b9565b6040516102079190612c74565b60405180910390f35b61022a60048036038101906102259190612568565b6107c6565b6040516102379190612a12565b60405180910390f35b610248610872565b6040516102559190612c74565b60405180910390f35b610278600480360381019061027391906123d4565b61087f565b005b610294600480360381019061028f9190612568565b61089f565b6040516102a19190612967565b60405180910390f35b6102c460048036038101906102bf9190612346565b610951565b6040516102d19190612c74565b60405180910390f35b6102e2610a09565b6040516102ef9190612967565b60405180910390f35b610300610a2f565b60405161030d9190612a12565b60405180910390f35b610330600480360381019061032b919061249e565b610ac1565b005b61034c60048036038101906103479190612423565b610ad7565b005b61036860048036038101906103639190612568565b610b39565b6040516103759190612a12565b60405180910390f35b61039860048036038101906103939190612568565b610be5565b6040516103a59190612a12565b60405180910390f35b6103c860048036038101906103c39190612568565b610d37565b6040516103d59190612a12565b60405180910390f35b6103e6610de3565b6040516103f39190612967565b60405180910390f35b61041660048036038101906104119190612398565b610e09565b60405161042391906129f7565b60405180910390f35b61044660048036038101906104419190612568565b610e9d565b005b60007f80ac58cd000000000000000000000000000000000000000000000000000000007bffffffffffffffffffffffffffffffffffffffffffffffffffffffff1916827bffffffffffffffffffffffffffffffffffffffffffffffffffffffff1916148061051357507f5b5e139f000000000000000000000000000000000000000000000000000000007bffffffffffffffffffffffffffffffffffffffffffffffffffffffff1916827bffffffffffffffffffffffffffffffffffffffffffffffffffffffff1916145b8061052357506105228261142f565b5b9050919050565b60606000805461053990612e99565b80601f016020809104026020016040519081016040528092919081815260200182805461056590612e99565b80156105b25780601f10610587576101008083540402835291602001916105b2565b820191906000526020600020905b81548152906001019060200180831161059557829003601f168201915b5050505050905090565b60006105c782611499565b610606576040517f08c379a00000000000000000000000000000000000000000000000000000000081526004016105fd90612bd4565b60405180910390fd5b6004600083815260200190815260200160002060009054906101000a900473ffffffffffffffffffffffffffffffffffffffff169050919050565b600061064c8261089f565b90508073ffffffffffffffffffffffffffffffffffffffff168373ffffffffffffffffffffffffffffffffffffffff1614156106bd576040517f08c379a00000000000000000000000000000000000000000000000000000000081526004016106b490612c14565b60405180910390fd5b8073ffffffffffffffffffffffffffffffffffffffff166106dc611505565b73ffffffffffffffffffffffffffffffffffffffff16148061070b575061070a81610705611505565b610e09565b5b61074a576040517f08c379a000000000000000000000000000000000000000000000000000000000815260040161074190612b14565b60405180910390fd5b610754838361150d565b505050565b61076a610764611505565b826115c6565b6107a9576040517f08c379a00000000000000000000000000000000000000000000000000000000081526004016107a090612c34565b60405180910390fd5b6107b48383836116a4565b505050565b680821ab0d441498000081565b600a81815481106107d657600080fd5b9060005260206000200160009150905080546107f190612e99565b80601f016020809104026020016040519081016040528092919081815260200182805461081d90612e99565b801561086a5780601f1061083f5761010080835404028352916020019161086a565b820191906000526020600020905b81548152906001019060200180831161084d57829003601f168201915b505050505081565b681043561a882930000081565b61089a83838360405180602001604052806000815250610ad7565b505050565b6000806002600084815260200190815260200160002060009054906101000a900473ffffffffffffffffffffffffffffffffffffffff169050600073ffffffffffffffffffffffffffffffffffffffff168173ffffffffffffffffffffffffffffffffffffffff161415610948576040517f08c379a000000000000000000000000000000000000000000000000000000000815260040161093f90612b54565b60405180910390fd5b80915050919050565b60008073ffffffffffffffffffffffffffffffffffffffff168273ffffffffffffffffffffffffffffffffffffffff1614156109c2576040517f08c379a00000000000000000000000000000000000000000000000000000000081526004016109b990612b34565b60405180910390fd5b600360008373ffffffffffffffffffffffffffffffffffffffff1673ffffffffffffffffffffffffffffffffffffffff168152602001908152602001600020549050919050565b600760009054906101000a900473ffffffffffffffffffffffffffffffffffffffff1681565b606060018054610a3e90612e99565b80601f0160208091040260200160405190810160405280929190818152602001828054610a6a90612e99565b8015610ab75780601f10610a8c57610100808354040283529160200191610ab7565b820191906000526020600020905b815481529060010190602001808311610a9a57829003601f168201915b5050505050905090565b610ad3610acc611505565b838361190b565b5050565b610ae8610ae2611505565b836115c6565b610b27576040517f08c379a0000000000000000000000000000000000000000000000000000000008152600401610b1e90612c34565b60405180910390fd5b610b3384848484611a78565b50505050565b600b8181548110610b4957600080fd5b906000526020600020016000915090508054610b6490612e99565b80601f0160208091040260200160405190810160405280929190818152602001828054610b9090612e99565b8015610bdd5780601f10610bb257610100808354040283529160200191610bdd565b820191906000526020600020905b815481529060010190602001808311610bc057829003601f168201915b505050505081565b6060610bf082611499565b610c2f576040517f08c379a0000000000000000000000000000000000000000000000000000000008152600401610c2690612bb4565b60405180910390fd5b6000600660008481526020019081526020016000208054610c4f90612e99565b80601f0160208091040260200160405190810160405280929190818152602001828054610c7b90612e99565b8015610cc85780601f10610c9d57610100808354040283529160200191610cc8565b820191906000526020600020905b815481529060010190602001808311610cab57829003601f168201915b505050505090506000610cd9611ad4565b9050600081511415610cef578192505050610d32565b600082511115610d24578082604051602001610d0c929190612917565b60405160208183030381529060405292505050610d32565b610d2d84611aeb565b925050505b919050565b60098181548110610d4757600080fd5b906000526020600020016000915090508054610d6290612e99565b80601f0160208091040260200160405190810160405280929190818152602001828054610d8e90612e99565b8015610ddb5780601f10610db057610100808354040283529160200191610ddb565b820191906000526020600020905b815481529060010190602001808311610dbe57829003601f168201915b505050505081565b600860009054906101000a900473ffffffffffffffffffffffffffffffffffffffff1681565b6000600560008473ffffffffffffffffffffffffffffffffffffffff1673ffffffffffffffffffffffffffffffffffffffff16815260200190815260200160002060008373ffffffffffffffffffffffffffffffffffffffff1673ffffffffffffffffffffffffffffffffffffffff16815260200190815260200160002060009054906101000a900460ff16905092915050565b80600860009054906101000a900473ffffffffffffffffffffffffffffffffffffffff1673ffffffffffffffffffffffffffffffffffffffff166370a08231336040518263ffffffff1660e01b8152600401610ef99190612967565b60206040518083038186803b158015610f1157600080fd5b505afa158015610f25573d6000803e3d6000fd5b505050506040513d601f19601f82011682018060405250810190610f499190612591565b1015610f8a576040517f08c379a0000000000000000000000000000000000000000000000000000000008152600401610f8190612a74565b60405180910390fd5b3073ffffffffffffffffffffffffffffffffffffffff16600860009054906101000a900473ffffffffffffffffffffffffffffffffffffffff1673ffffffffffffffffffffffffffffffffffffffff166327810b6e6040518163ffffffff1660e01b815260040160206040518083038186803b15801561100957600080fd5b505afa15801561101d573d6000803e3d6000fd5b505050506040513d601f19601f82011682018060405250810190611041919061236f565b73ffffffffffffffffffffffffffffffffffffffff1614611097576040517f08c379a000000000000000000000000000000000000000000000000000000000815260040161108e90612c54565b60405180910390fd5b600860009054906101000a900473ffffffffffffffffffffffffffffffffffffffff1673ffffffffffffffffffffffffffffffffffffffff16630d1118ce33836040518363ffffffff1660e01b81526004016110f49291906129ce565b600060405180830381600087803b15801561110e57600080fd5b505af1158015611122573d6000803e3d6000fd5b50505050600060098080549050611137611b92565b6111419190612f4f565b81548110611178577f4e487b7100000000000000000000000000000000000000000000000000000000600052603260045260246000fd5b90600052602060002001805461118d90612e99565b80601f01602080910402602001604051908101604052809291908181526020018280546111b990612e99565b80156112065780601f106111db57610100808354040283529160200191611206565b820191906000526020600020905b8154815290600101906020018083116111e957829003601f168201915b50505050509050681043561a8829300000821061130757600b808054905061122c611b92565b6112369190612f4f565b8154811061126d577f4e487b7100000000000000000000000000000000000000000000000000000000600052603260045260246000fd5b90600052602060002001805461128290612e99565b80601f01602080910402602001604051908101604052809291908181526020018280546112ae90612e99565b80156112fb5780601f106112d0576101008083540402835291602001916112fb565b820191906000526020600020905b8154815290600101906020018083116112de57829003601f168201915b505050505090506113fe565b680821ab0d441498000082106113fd57600a8080549050611326611b92565b6113309190612f4f565b81548110611367577f4e487b7100000000000000000000000000000000000000000000000000000000600052603260045260246000fd5b90600052602060002001805461137c90612e99565b80601f01602080910402602001604051908101604052809291908181526020018280546113a890612e99565b80156113f55780601f106113ca576101008083540402835291602001916113f5565b820191906000526020600020905b8154815290600101906020018083116113d857829003601f168201915b505050505090505b5b600061140a600c611bc5565b90506114163382611bd3565b6114208183611dad565b61142a600c611e21565b505050565b60007f01ffc9a7000000000000000000000000000000000000000000000000000000007bffffffffffffffffffffffffffffffffffffffffffffffffffffffff1916827bffffffffffffffffffffffffffffffffffffffffffffffffffffffff1916149050919050565b60008073ffffffffffffffffffffffffffffffffffffffff166002600084815260200190815260200160002060009054906101000a900473ffffffffffffffffffffffffffffffffffffffff1673ffffffffffffffffffffffffffffffffffffffff1614159050919050565b600033905090565b816004600083815260200190815260200160002060006101000a81548173ffffffffffffffffffffffffffffffffffffffff021916908373ffffffffffffffffffffffffffffffffffffffff160217905550808273ffffffffffffffffffffffffffffffffffffffff166115808361089f565b73ffffffffffffffffffffffffffffffffffffffff167f8c5be1e5ebec7d5bd14f71427d1e84f3dd0314c0f7b2291e5b200ac8c7c3b92560405160405180910390a45050565b60006115d182611499565b611610576040517f08c379a000000000000000000000000000000000000000000000000000000000815260040161160790612af4565b60405180910390fd5b600061161b8361089f565b90508073ffffffffffffffffffffffffffffffffffffffff168473ffffffffffffffffffffffffffffffffffffffff16148061165d575061165c8185610e09565b5b8061169b57508373ffffffffffffffffffffffffffffffffffffffff16611683846105bc565b73ffffffffffffffffffffffffffffffffffffffff16145b91505092915050565b8273ffffffffffffffffffffffffffffffffffffffff166116c48261089f565b73ffffffffffffffffffffffffffffffffffffffff161461171a576040517f08c379a000000000000000000000000000000000000000000000000000000000815260040161171190612a54565b60405180910390fd5b600073ffffffffffffffffffffffffffffffffffffffff168273ffffffffffffffffffffffffffffffffffffffff16141561178a576040517f08c379a000000000000000000000000000000000000000000000000000000000815260040161178190612ab4565b60405180910390fd5b611795838383611e37565b6117a060008261150d565b6001600360008573ffffffffffffffffffffffffffffffffffffffff1673ffffffffffffffffffffffffffffffffffffffff16815260200190815260200160002060008282546117f09190612daf565b925050819055506001600360008473ffffffffffffffffffffffffffffffffffffffff1673ffffffffffffffffffffffffffffffffffffffff16815260200190815260200160002060008282546118479190612d28565b92505081905550816002600083815260200190815260200160002060006101000a81548173ffffffffffffffffffffffffffffffffffffffff021916908373ffffffffffffffffffffffffffffffffffffffff160217905550808273ffffffffffffffffffffffffffffffffffffffff168473ffffffffffffffffffffffffffffffffffffffff167fddf252ad1be2c89b69c2b068fc378daa952ba7f163c4a11628f55a4df523b3ef60405160405180910390a4611906838383611e3c565b505050565b8173ffffffffffffffffffffffffffffffffffffffff168373ffffffffffffffffffffffffffffffffffffffff16141561197a576040517f08c379a000000000000000000000000000000000000000000000000000000000815260040161197190612ad4565b60405180910390fd5b80600560008573ffffffffffffffffffffffffffffffffffffffff1673ffffffffffffffffffffffffffffffffffffffff16815260200190815260200160002060008473ffffffffffffffffffffffffffffffffffffffff1673ffffffffffffffffffffffffffffffffffffffff16815260200190815260200160002060006101000a81548160ff0219169083151502179055508173ffffffffffffffffffffffffffffffffffffffff168373ffffffffffffffffffffffffffffffffffffffff167f17307eab39ab6107e8899845ad3d59bd9653f200f220920489ca2b5937696c3183604051611a6b91906129f7565b60405180910390a3505050565b611a838484846116a4565b611a8f84848484611e41565b611ace576040517f08c379a0000000000000000000000000000000000000000000000000000000008152600401611ac590612a34565b60405180910390fd5b50505050565b606060405180602001604052806000815250905090565b6060611af682611499565b611b35576040517f08c379a0000000000000000000000000000000000000000000000000000000008152600401611b2c90612bf4565b60405180910390fd5b6000611b3f611ad4565b90506000815111611b5f5760405180602001604052806000815250611b8a565b80611b6984611fd8565b604051602001611b7a929190612917565b6040516020818303038152906040525b915050919050565b60004442604051602001611ba792919061293b565b6040516020818303038152906040528051906020012060001c905090565b600081600001549050919050565b600073ffffffffffffffffffffffffffffffffffffffff168273ffffffffffffffffffffffffffffffffffffffff161415611c43576040517f08c379a0000000000000000000000000000000000000000000000000000000008152600401611c3a90612b94565b60405180910390fd5b611c4c81611499565b15611c8c576040517f08c379a0000000000000000000000000000000000000000000000000000000008152600401611c8390612a94565b60405180910390fd5b611c9860008383611e37565b6001600360008473ffffffffffffffffffffffffffffffffffffffff1673ffffffffffffffffffffffffffffffffffffffff1681526020019081526020016000206000828254611ce89190612d28565b92505081905550816002600083815260200190815260200160002060006101000a81548173ffffffffffffffffffffffffffffffffffffffff021916908373ffffffffffffffffffffffffffffffffffffffff160217905550808273ffffffffffffffffffffffffffffffffffffffff16600073ffffffffffffffffffffffffffffffffffffffff167fddf252ad1be2c89b69c2b068fc378daa952ba7f163c4a11628f55a4df523b3ef60405160405180910390a4611da960008383611e3c565b5050565b611db682611499565b611df5576040517f08c379a0000000000000000000000000000000000000000000000000000000008152600401611dec90612b74565b60405180910390fd5b80600660008481526020019081526020016000209080519060200190611e1c9291906121a8565b505050565b6001816000016000828254019250508190555050565b505050565b505050565b6000611e628473ffffffffffffffffffffffffffffffffffffffff16612185565b15611fcb578373ffffffffffffffffffffffffffffffffffffffff1663150b7a02611e8b611505565b8786866040518563ffffffff1660e01b8152600401611ead9493929190612982565b602060405180830381600087803b158015611ec757600080fd5b505af1925050508015611ef857506040513d601f19601f82011682018060405250810190611ef5919061253f565b60015b611f7b573d8060008114611f28576040519150601f19603f3d011682016040523d82523d6000602084013e611f2d565b606091505b50600081511415611f73576040517f08c379a0000000000000000000000000000000000000000000000000000000008152600401611f6a90612a34565b60405180910390fd5b805181602001fd5b63150b7a0260e01b7bffffffffffffffffffffffffffffffffffffffffffffffffffffffff1916817bffffffffffffffffffffffffffffffffffffffffffffffffffffffff191614915050611fd0565b600190505b949350505050565b60606000821415612020576040518060400160405280600181526020017f30000000000000000000000000000000000000000000000000000000000000008152509050612180565b600082905060005b6000821461205257808061203b90612efc565b915050600a8261204b9190612d7e565b9150612028565b60008167ffffffffffffffff811115612094577f4e487b7100000000000000000000000000000000000000000000000000000000600052604160045260246000fd5b6040519080825280601f01601f1916602001820160405280156120c65781602001600182028036833780820191505090505b5090505b60008514612179576001826120df9190612daf565b9150600a856120ee9190612f4f565b60306120fa9190612d28565b60f81b818381518110612136577f4e487b7100000000000000000000000000000000000000000000000000000000600052603260045260246000fd5b60200101907effffffffffffffffffffffffffffffffffffffffffffffffffffffffffffff1916908160001a905350600a856121729190612d7e565b94506120ca565b8093505050505b919050565b6000808273ffffffffffffffffffffffffffffffffffffffff163b119050919050565b8280546121b490612e99565b90600052602060002090601f0160209004810192826121d6576000855561221d565b82601f106121ef57805160ff191683800117855561221d565b8280016001018555821561221d579182015b8281111561221c578251825591602001919060010190612201565b5b50905061222a919061222e565b5090565b5b8082111561224757600081600090555060010161222f565b5090565b600061225e61225984612cb4565b612c8f565b90508281526020810184848401111561227657600080fd5b612281848285612e57565b509392505050565b6000813590506122988161351d565b92915050565b6000815190506122ad8161351d565b92915050565b6000813590506122c281613534565b92915050565b6000813590506122d78161354b565b92915050565b6000815190506122ec8161354b565b92915050565b600082601f83011261230357600080fd5b813561231384826020860161224b565b91505092915050565b60008135905061232b81613562565b92915050565b60008151905061234081613562565b92915050565b60006020828403121561235857600080fd5b600061236684828501612289565b91505092915050565b60006020828403121561238157600080fd5b600061238f8482850161229e565b91505092915050565b600080604083850312156123ab57600080fd5b60006123b985828601612289565b92505060206123ca85828601612289565b9150509250929050565b6000806000606084860312156123e957600080fd5b60006123f786828701612289565b935050602061240886828701612289565b92505060406124198682870161231c565b9150509250925092565b6000806000806080858703121561243957600080fd5b600061244787828801612289565b945050602061245887828801612289565b93505060406124698782880161231c565b925050606085013567ffffffffffffffff81111561248657600080fd5b612492878288016122f2565b91505092959194509250565b600080604083850312156124b157600080fd5b60006124bf85828601612289565b92505060206124d0858286016122b3565b9150509250929050565b600080604083850312156124ed57600080fd5b60006124fb85828601612289565b925050602061250c8582860161231c565b9150509250929050565b60006020828403121561252857600080fd5b6000612536848285016122c8565b91505092915050565b60006020828403121561255157600080fd5b600061255f848285016122dd565b91505092915050565b60006020828403121561257a57600080fd5b60006125888482850161231c565b91505092915050565b6000602082840312156125a357600080fd5b60006125b184828501612331565b91505092915050565b6125c381612de3565b82525050565b6125d281612df5565b82525050565b60006125e382612ce5565b6125ed8185612cfb565b93506125fd818560208601612e66565b6126068161303c565b840191505092915050565b600061261c82612cf0565b6126268185612d0c565b9350612636818560208601612e66565b61263f8161303c565b840191505092915050565b600061265582612cf0565b61265f8185612d1d565b935061266f818560208601612e66565b80840191505092915050565b6000612688603283612d0c565b91506126938261304d565b604082019050919050565b60006126ab602583612d0c565b91506126b68261309c565b604082019050919050565b60006126ce601283612d0c565b91506126d9826130eb565b602082019050919050565b60006126f1601c83612d0c565b91506126fc82613114565b602082019050919050565b6000612714602483612d0c565b915061271f8261313d565b604082019050919050565b6000612737601983612d0c565b91506127428261318c565b602082019050919050565b600061275a602c83612d0c565b9150612765826131b5565b604082019050919050565b600061277d603883612d0c565b915061278882613204565b604082019050919050565b60006127a0602a83612d0c565b91506127ab82613253565b604082019050919050565b60006127c3602983612d0c565b91506127ce826132a2565b604082019050919050565b60006127e6602e83612d0c565b91506127f1826132f1565b604082019050919050565b6000612809602083612d0c565b915061281482613340565b602082019050919050565b600061282c603183612d0c565b915061283782613369565b604082019050919050565b600061284f602c83612d0c565b915061285a826133b8565b604082019050919050565b6000612872602f83612d0c565b915061287d82613407565b604082019050919050565b6000612895602183612d0c565b91506128a082613456565b604082019050919050565b60006128b8603183612d0c565b91506128c3826134a5565b604082019050919050565b60006128db600983612d0c565b91506128e6826134f4565b602082019050919050565b6128fa81612e4d565b82525050565b61291161290c82612e4d565b612f45565b82525050565b6000612923828561264a565b915061292f828461264a565b91508190509392505050565b60006129478285612900565b6020820191506129578284612900565b6020820191508190509392505050565b600060208201905061297c60008301846125ba565b92915050565b600060808201905061299760008301876125ba565b6129a460208301866125ba565b6129b160408301856128f1565b81810360608301526129c381846125d8565b905095945050505050565b60006040820190506129e360008301856125ba565b6129f060208301846128f1565b9392505050565b6000602082019050612a0c60008301846125c9565b92915050565b60006020820190508181036000830152612a2c8184612611565b905092915050565b60006020820190508181036000830152612a4d8161267b565b9050919050565b60006020820190508181036000830152612a6d8161269e565b9050919050565b60006020820190508181036000830152612a8d816126c1565b9050919050565b60006020820190508181036000830152612aad816126e4565b9050919050565b60006020820190508181036000830152612acd81612707565b9050919050565b60006020820190508181036000830152612aed8161272a565b9050919050565b60006020820190508181036000830152612b0d8161274d565b9050919050565b60006020820190508181036000830152612b2d81612770565b9050919050565b60006020820190508181036000830152612b4d81612793565b9050919050565b60006020820190508181036000830152612b6d816127b6565b9050919050565b60006020820190508181036000830152612b8d816127d9565b9050919050565b60006020820190508181036000830152612bad816127fc565b9050919050565b60006020820190508181036000830152612bcd8161281f565b9050919050565b60006020820190508181036000830152612bed81612842565b9050919050565b60006020820190508181036000830152612c0d81612865565b9050919050565b60006020820190508181036000830152612c2d81612888565b9050919050565b60006020820190508181036000830152612c4d816128ab565b9050919050565b60006020820190508181036000830152612c6d816128ce565b9050919050565b6000602082019050612c8960008301846128f1565b92915050565b6000612c99612caa565b9050612ca58282612ecb565b919050565b6000604051905090565b600067ffffffffffffffff821115612ccf57612cce61300d565b5b612cd88261303c565b9050602081019050919050565b600081519050919050565b600081519050919050565b600082825260208201905092915050565b600082825260208201905092915050565b600081905092915050565b6000612d3382612e4d565b9150612d3e83612e4d565b9250827fffffffffffffffffffffffffffffffffffffffffffffffffffffffffffffffff03821115612d7357612d72612f80565b5b828201905092915050565b6000612d8982612e4d565b9150612d9483612e4d565b925082612da457612da3612faf565b5b828204905092915050565b6000612dba82612e4d565b9150612dc583612e4d565b925082821015612dd857612dd7612f80565b5b828203905092915050565b6000612dee82612e2d565b9050919050565b60008115159050919050565b60007fffffffff0000000000000000000000000000000000000000000000000000000082169050919050565b600073ffffffffffffffffffffffffffffffffffffffff82169050919050565b6000819050919050565b82818337600083830152505050565b60005b83811015612e84578082015181840152602081019050612e69565b83811115612e93576000848401525b50505050565b60006002820490506001821680612eb157607f821691505b60208210811415612ec557612ec4612fde565b5b50919050565b612ed48261303c565b810181811067ffffffffffffffff82111715612ef357612ef261300d565b5b80604052505050565b6000612f0782612e4d565b91507fffffffffffffffffffffffffffffffffffffffffffffffffffffffffffffffff821415612f3a57612f39612f80565b5b600182019050919050565b6000819050919050565b6000612f5a82612e4d565b9150612f6583612e4d565b925082612f7557612f74612faf565b5b828206905092915050565b7f4e487b7100000000000000000000000000000000000000000000000000000000600052601160045260246000fd5b7f4e487b7100000000000000000000000000000000000000000000000000000000600052601260045260246000fd5b7f4e487b7100000000000000000000000000000000000000000000000000000000600052602260045260246000fd5b7f4e487b7100000000000000000000000000000000000000000000000000000000600052604160045260246000fd5b6000601f19601f8301169050919050565b7f4552433732313a207472616e7366657220746f206e6f6e20455243373231526560008201527f63656976657220696d706c656d656e7465720000000000000000000000000000602082015250565b7f4552433732313a207472616e736665722066726f6d20696e636f72726563742060008201527f6f776e6572000000000000000000000000000000000000000000000000000000602082015250565b7f494e53554646494349454e545f46554e44530000000000000000000000000000600082015250565b7f4552433732313a20746f6b656e20616c7265616479206d696e74656400000000600082015250565b7f4552433732313a207472616e7366657220746f20746865207a65726f2061646460008201527f7265737300000000000000000000000000000000000000000000000000000000602082015250565b7f4552433732313a20617070726f766520746f2063616c6c657200000000000000600082015250565b7f4552433732313a206f70657261746f7220717565727920666f72206e6f6e657860008201527f697374656e7420746f6b656e0000000000000000000000000000000000000000602082015250565b7f4552433732313a20617070726f76652063616c6c6572206973206e6f74206f7760008201527f6e6572206e6f7220617070726f76656420666f7220616c6c0000000000000000602082015250565b7f4552433732313a2062616c616e636520717565727920666f7220746865207a6560008201527f726f206164647265737300000000000000000000000000000000000000000000602082015250565b7f4552433732313a206f776e657220717565727920666f72206e6f6e657869737460008201527f656e7420746f6b656e0000000000000000000000000000000000000000000000602082015250565b7f45524337323155524953746f726167653a2055524920736574206f66206e6f6e60008201527f6578697374656e7420746f6b656e000000000000000000000000000000000000602082015250565b7f4552433732313a206d696e7420746f20746865207a65726f2061646472657373600082015250565b7f45524337323155524953746f726167653a2055524920717565727920666f722060008201527f6e6f6e6578697374656e7420746f6b656e000000000000000000000000000000602082015250565b7f4552433732313a20617070726f76656420717565727920666f72206e6f6e657860008201527f697374656e7420746f6b656e0000000000000000000000000000000000000000602082015250565b7f4552433732314d657461646174613a2055524920717565727920666f72206e6f60008201527f6e6578697374656e7420746f6b656e0000000000000000000000000000000000602082015250565b7f4552433732313a20617070726f76616c20746f2063757272656e74206f776e6560008201527f7200000000000000000000000000000000000000000000000000000000000000602082015250565b7f4552433732313a207472616e736665722063616c6c6572206973206e6f74206f60008201527f776e6572206e6f7220617070726f766564000000000000000000000000000000602082015250565b7f4e4f5f4143434553530000000000000000000000000000000000000000000000600082015250565b61352681612de3565b811461353157600080fd5b50565b61353d81612df5565b811461354857600080fd5b50565b61355481612e01565b811461355f57600080fd5b50565b61356b81612e4d565b811461357657600080fd5b5056fea2646970667358221220fae89adf4e41eac5285d94abf81e46b8547f36f9c443a7fe2d86c1c80324388664736f6c63430008030033",
  "linkReferences": {},
  "deployedLinkReferences": {}
}